:1000000012C047C02BC02AC029C028C027C026C0A4
:1000100025C024C023C022C021C020C01FC01EC0D4
:100020001DC01CC01BC011241FBECFE5D4E0DEBF25
:10003000CDBF10E0A0E6B0E0EEEDF0E002C005902C
:100040000D92A036B107D9F710E0A0E6B0E001C0EC
:100050001D92A236B107E1F70AD03FC0D1CFDF939E
:10006000CF93CDB7DEB70000CF91DF910895DF9336
:10007000CF93CDB7DEB7E1E3F0E080E18083E2E348
:10008000F0E084E08083EBE5F0E080E48083789426
:10009000FFCF1F920F920FB60F9211248F939F9351
:1000A000AF93BF93EF93FF93DF93CF93CDB7DEB7BB
:1000B000A2E3B0E0E2E3F0E0908180E189278C9355
:1000C000CF91DF91FF91EF91BF91AF919F918F9170
:0E00D0000F900FBE0F901F901895F894FFCF61
:00000001FF
