:020000020000FC
:1000000010C038C039C018951895189518951895CE
:1000100035C0189518951895189518951895189530
:1000200018954FE54DBF44E04EBF00E001BB0FEF18
:1000300002BB61E01FEF17BB03E00EBD002704E029
:1000400009BF002700EC0BBF00270AE005BF78942A
:1000500005E508BB04D00AEA08BB01D0F9CF562F4A
:100060000FEF0DBD03E80CBD41E04030F1F75A95AC
:10007000B9F7089561E0189562E0189540E0189589
:00000001FF
