:1000000012C02CC02BC02AC029C028C027C026C0BF
:1000100025C024C023C022C021C020C01FC01EC0D4
:100020001DC01CC01BC011241FBECFE5D4E0DEBF25
:10003000CDBF10E0A0E6B0E0E2EFF0E002C0059036
:100040000D92A036B107D9F710E0A0E6B0E001C0EC
:100050001D92A036B107E1F702D049C0D1CFDF939E
:10006000CF93CDB7DEB7E1E3F0E08FEF8083ECE331
:10007000F0E08081882F90E0827090700097B9F74F
:10008000EFE3F0E01082EEE3F0E08FE58083EDE354
:10009000F0E086E58083ACE3B0E0ECE3F0E0808163
:1000A00084608C93ACE3B0E0ECE3F0E080818260AC
:1000B0008C93ECE3F0E08081882F90E08270907068
:1000C0000097B9F7EFE3F0E01082EEE3F0E08FE5A0
:1000D0008083ACE3B0E0ECE3F0E0808181608C935E
:1000E000A2E3B0E0EDE3F0E080818C93FFCFF894E1
:0200F000FFCF40
:00000001FF
