:1000000012C02CC02BC02AC029C028C027C026C0BF
:1000100025C024C023C022C021C020C01FC01EC0D4
:100020001DC01CC01BC011241FBECFE5D4E0DEBF25
:10003000CDBF10E0A0E6B0E0E2EAF0E002C005903B
:100040000D92A036B107D9F710E0A0E6B0E001C0EC
:100050001D92A036B107E1F702D021C0D1CFDF93C6
:10006000CF93CDB7DEB7E4E3F0E08FEF8083E7E333
:10007000F0E080E48083EDE2F0E080E48083EFE272
:10008000F0E082E68083EEE2F0E080818823DCF716
:10009000E5E3F0E0AFE2B0E08C918083F0CFF8943C
:0200A000FFCF90
:00000001FF
