:1000000012C02CC02BC02AC029C028C027C026C0BF
:1000100026C024C023C022C021C020C01FC01EC0D3
:100020001DC01CC01BC011241FBECFE5D4E0DEBF25
:10003000CDBF10E0A0E6B0E0EEE0F4E002C0059035
:100040000D92A436B107D9F710E0A4E6B0E001C0E4
:100050001D92A636B107E1F716D0D7C1D1CF1F92B6
:100060000F920FB60F921124DF93CF93CDB7DEB767
:100070001092650010926400CF91DF910F900FBE37
:100080000F901F901895DF93CF93CDB7DEB72897C9
:100090000FB6F894DEBF0FBECDBFE1E3F0E08FEF07
:1000A0008083E7E3F0E08FEF8083A8E3B0E0E8E34C
:1000B000F0E0808182608C93A9E5B0E0E9E5F0E0B2
:1000C000808184608C93A4E3B0E0E4E3F0E080817D
:1000D0008D7F8C93A5E3B0E0E5E3F0E08081826062
:1000E0008C93E6E2F0E087E88083E7E2F0E081E4E9
:1000F0008083789470D080E690E084D0A6E2B0E06F
:10010000E6E2F0E0808180648C93E6E2F0E08081BA
:10011000882F90E0807190700097B9F3E4E2F0E0EE
:100120008081882F90E098878F83E5E2F0E08081DE
:10013000882F90E09E838D83A6E2B0E0E6E2F0E0B7
:1001400080818F7E8C938D819E81837090709E8341
:100150008D838F8198859C0130708D819E81982F31
:100160008827822B932B98878F8381E066D082E04B
:1001700090E0EBD082E890E09A8389831C821B8216
:1001800021C0298189819A8101979A838983822F4D
:1001900054D084E090E0D9D08F8198852AE030E077
:1001A000B9010CD1805D8DD08F8198852AE030E037
:1001B000B90104D1CB0198878F838B819C810196F3
:1001C0009C838B838B819C8183309105D4F288EE54
:1001D00093E0BBD093CFDF93CF93CDB7DEB780E171
:1001E00090E0B3D083E329D082E327D088E225D002
:1001F00081E023D08EE021D08AE090E0A6D0CF919C
:10020000DF910895DF93CF9300D0CDB7DEB79A8307
:10021000898309C0E981FA81808153D089819A81DB
:1002200001969A838983E981FA818081882391F7F5
:100230000F900F90CF91DF910895DF93CF930F929E
:10024000CDB7DEB78983E2E3F0E08981807F8083E8
:10025000A8E3B0E0E8E3F0E080818F7D8C93A8E331
:10026000B0E0E8E3F0E0808180618C9381E090E091
:100270006CD0A8E3B0E0E8E3F0E080818F7E8C935F
:1002800082E090E062D0E2E3F0E089818295807FB5
:100290008083A8E3B0E0E8E3F0E0808180618C93A4
:1002A00081E090E052D0A8E3B0E0E8E3F0E08081A4
:1002B0008F7E8C9382E090E048D00F90CF91DF91B9
:1002C0000895DF93CF930F92CDB7DEB78983E2E332
:1002D000F0E08981807F8083A8E3B0E0E8E3F0E08C
:1002E000808180628C93A8E3B0E0E8E3F0E0808155
:1002F00080618C9381E090E028D0A8E3B0E0E8E34F
:10030000F0E080818F7E8C9382E090E01ED0E2E36B
:10031000F0E089818295807F8083A8E3B0E0E8E304
:10032000F0E0808180618C9381E090E00ED0A8E3C2
:10033000B0E0E8E3F0E080818F7E8C9382E090E093
:1003400004D00F90CF91DF910895DF93CF9300D029
:1003500000D0CDB7DEB79C838B831A82198220C070
:1003600081E090E09093650080936400EDE4F0E01C
:100370008FEF8083ECE4F0E084E88083AEE4B0E0CB
:10038000EEE4F0E0808183608C9380916400909132
:1003900065000097D1F789819A8101969A838983B4
:1003A00029813A818B819C8128173907C8F20F90E7
:1003B0000F900F900F90CF91DF91089597FB092E2A
:1003C00007260AD077FD04D00CD006D000201AF4FE
:1003D000709561957F4F0895F6F7909581959F4FA1
:1003E0000895AA1BBB1B51E107C0AA1FBB1FA6177C
:1003F000B70710F0A61BB70B881F991F5A95A9F7CE
:0E04000080959095BC01CD010895F894FFCF32
:04040E006869000019
:00000001FF
