:1000000012C02CC02BC02BC029C028C027C026C0BE
:1000100025C024C023C022C021C020C01FC01EC0D4
:100020001DC01CC01BC011241FBECFE5D4E0DEBF25
:10003000CDBF10E0A0E6B0E0EAEBF0E002C0059032
:100040000D92A036B107D9F710E0A0E6B0E001C0EC
:100050001D92A036B107E1F712D02DC0D1CF1F926B
:100060000F920FB60F921124DF93CF93CDB7DEB767
:10007000CF91DF910F900FBE0F901F901895DF93D7
:10008000CF93CDB7DEB7E7E3F0E08FEF8083E4E412
:10009000F0E01082E3E4F0E080E88083E9E5F0E05E
:1000A00080E880837894A5E4B0E0E5E4F0E0808126
:0A00B0008B678C93FFCFF894FFCF0D
:00000001FF
