:020000020000FC
:1000000010C0189518951895189518951895189565
:100010001895189518951895189518951895189578
:10002000189525E0209360002AE02093610023E0EA
:100030002093620026E12093630021E02093640076
:1000400022E02093650024E02093660028E02093BE
:1000500067002CE02093680024E12093690020E0F1
:10006000209370002093800066277FEF0FEF10E051
:10007000DD27C0E7FF27E0E84AE0BB27A0E65AE01B
:100080002D9162171CF4021708F0022F721728F046
:10009000271719F0211708F0122F5A9589F70883AE
:1000A00069911083719110E00FEF4A9531F70000CC
:0800B000000000000000FBCF7E
:00000001FF
