:1000000012C02CC02BC02AC029C028C027C026C0BF
:1000100025C024C023C023C059C044C01FC01EC077
:100020001DC01CC01BC011241FBECFE5D4E0DEBF25
:10003000CDBF10E0A0E6B0E0E8E8F1E002C0059036
:100040000D92A036B107D9F710E0A0E6B0E001C0EC
:100050001D92A536B107E1F74DD094C0D1CF1F92C4
:100060000F920FB60F9211248F939F93EF93FF93EC
:10007000DF93CF93CDB7DEB7ECE2F0E080818093E1
:10008000620081E090E09093610080936000CF91E6
:10009000DF91FF91EF919F918F910F900FBE0F9085
:1000A0001F9018951F920F920FB60F921124DF9395
:1000B000CF93CDB7DEB71092640010926300CF915A
:1000C000DF910F900FBE0F901F9018951F920F9207
:1000D0000FB60F921124DF93CF93CDB7DEB71092F6
:1000E000640010926300CF91DF910F900FBE0F90CC
:1000F0001F901895DF93CF93CDB7DEB709D07894D2
:1001000080916000909161000097D1F31AD0F8CFF0
:10011000DF93CF93CDB7DEB7E9E2F0E083E38083EE
:10012000AAE2B0E0EAE2F0E08081886F8C93A0E47C
:10013000B0E0E0E4F0E0808186688C93CF91DF91BD
:100140000895DF93CF93CDB7DEB781E090E0909331
:10015000640080936300809162008F5F80936200EF
:10016000ECE2F0E0809162008083809163009091E6
:1001700064000097D1F71092610010926000CF9157
:08018000DF910895F894FFCF10
:00000001FF
