:1000000012C02CC02BC02AC029C028C027C026C0BF
:1000100025C024C023C022C021C020C020C01EC0D3
:100020001DC01CC01BC011241FBECFE5D4E0DEBF25
:10003000CDBF10E0A0E6B0E0ECEFF0E002C005902C
:100040000D92A036B107D9F710E0A0E6B0E001C0EC
:100050001D92A036B107E1F72FD04EC0D1CF1F922D
:100060000F920FB60F9211248F93AF93BF93EF931C
:10007000FF93DF93CF93CDB7DEB7A2E3B0E0E4E226
:10008000F0E080818C93A8E3B0E0E5E2F0E08081CD
:100090008C93A6E2B0E0E6E2F0E0808180648C938D
:1000A000CF91DF91FF91EF91BF91AF918F910F9021
:1000B0000FBE0F901F901895DF93CF93CDB7DEB78B
:1000C000E7E3F0E08FEF8083E1E3F0E08FEF808300
:1000D000E4E3F0E010827894E6E2F0E08FE88083D9
:1000E000E7E2F0E080EC8083A6E2B0E0E6E2F0E058
:0C00F000808180648C93FFCFF894FFCFD8
:00000001FF
