:100000000C9438000C9455000C9455000C94550039
:100010000C9455000C9455000C9455000C9455000C
:100020000C9455000C9455000C9455000C945500FC
:100030000C9455000C9455000C94FC010C94550044
:100040000C9455000C9455000C9455000C945500DC
:100050000C9455000C9455000C9455000C945500CC
:100060000C9455000C9455000102040810204080A7
:1000700011241FBECFEFD4E0DEBFCDBF11E0A0E062
:10008000B1E0E6E2F4E002C005900D92A030B107C5
:10009000D9F711E0A0E0B1E001C01D92A231B10793
:1000A000E1F70E9457000C9411020C940000DF93BA
:1000B000CF93CDB7DEB70E94C40187E00E9418013C
:1000C00086E00E941801809101018823E1F31092DB
:1000D00001010E946C00F7CFDF93CF9300D000D0D6
:1000E00000D0CDB7DEB71C8234C08C81882F90E061
:1000F000880F991FFC01EE5FFE4F80819181009770
:1001000029F18C81282F30E0C901880F991FFC014B
:10011000EE5FFE4F80819181AC0141505040C9019A
:10012000880F991FFC01EE5FFE4F518340838C8145
:10013000882F90E0880F991FFC01EE5FFE4F8081B1
:100140009181009719F48C810E9418018C818F5F36
:100150008C838C81883048F21C8214C08C81882F5B
:1001600090E088599F4F9B838A83EA81FB81849129
:1001700089839981809100018923882331F48C81BE
:100180008F5F8C838C81893048F38C81282F30E0FD
:100190003E832D838D819E818330910591F12D8148
:1001A0003E81243031057CF48D819E818130910522
:1001B00011F12D813E812230310504F58D819E8122
:1001C0000097B1F02CC02D813E8125303105F9F02A
:1001D0008D819E8185309105BCF02D813E81263038
:1001E0003105C1F08D819E8187309105B1F017C036
:1001F0000E94580114C00E94620111C00E946C014B
:100200000EC00E9476010BC00E94800108C00E94AF
:100210008A0105C00E94940102C00E94AC0126968A
:100220000FB6F894DEBF0FBECDBFCF91DF9108951A
:10023000DF93CF9300D000D0CDB7DEB78C838C8115
:10024000882F90E088599F4F9B838A83EA81FB81A6
:1002500084918983998180910001892B8093000189
:100260000F900F900F900F90CF91DF910895DF9333
:10027000CF9300D000D0CDB7DEB78C838C81882F90
:1002800090E088599F4F9B838A83EA81FB81849108
:1002900089838981982F909580910001892380938B
:1002A00000010F900F900F900F90CF91DF91089564
:1002B000DF93CF93CDB7DEB780E00E943701CF91B7
:1002C000DF910895DF93CF93CDB7DEB781E00E9431
:1002D0003701CF91DF910895DF93CF93CDB7DEB78C
:1002E00082E00E943701CF91DF910895DF93CF9391
:1002F000CDB7DEB783E00E943701CF91DF9108953B
:10030000DF93CF93CDB7DEB784E00E943701CF9162
:10031000DF910895DF93CF93CDB7DEB785E00E94DC
:100320003701CF91DF910895DF93CF93CDB7DEB73B
:10033000A5E2B0E0E5E2F0E0908180E189278C93CE
:1003400089E190E090930F0180930E0186E00E9476
:100350003701CF91DF910895DF93CF93CDB7DEB70B
:10036000A5E2B0E0E5E2F0E0908180E289278C939D
:1003700082E390E0909311018093100187E00E9446
:100380003701CF91DF910895DF93CF93CDB7DEB7DB
:10039000F894E4E2F0E080E380830E94E301E5E585
:1003A000F0E01082E9E6F0E01082EDE3F0E0108288
:1003B000EEE6F0E082E08083E4E6F0E010827894FC
:1003C000CF91DF910895DF93CF93CDB7DEB7E5E40A
:1003D000F0E01082E6E4F0E01082E4E4F0E082E095
:1003E0008083E7E4F0E08CE98083E5E4F0E085E0F9
:1003F0008083CF91DF9108951F920F920FB60F92D5
:1004000011248F93DF93CF93CDB7DEB781E0809334
:100410000101CF91DF918F910F900FBE0F901F9030
:060420001895F894FFCFCF
:00000001FF
