:1000000012C02DC046C02AC029C028C027C026C0A3
:100010005AC024C023C022C021C020C01FC01EC09F
:100020001DC01CC01BC011241FBECFE5D4E0DEBF25
:10003000CDBF10E0A0E6B0E0EEEBF1E002C005902D
:100040000D92A236B107D9F710E0A2E6B0E001C0E8
:100050001D92A436B107E1F74AD0AFC0D1CF1F92AD
:100060000F920FB60F9211248F939F93DF93CF932C
:10007000CDB7DEB781E090E090936100809360009F
:10008000CF91DF919F918F910F900FBE0F901F9096
:1000900018951F920F920FB60F9211248F939F9372
:1000A000DF93CF93CDB7DEB782E090E0909361000D
:1000B00080936000CF91DF919F918F910F900FBE41
:1000C0000F901F9018951F920F920FB60F92112448
:1000D000DF93CF93CDB7DEB710926300109262002A
:1000E000CF91DF910F900FBE0F901F901895DF9367
:1000F000CF93CDB7DEB7E7E3F0E08FEF8083E1E3A6
:10010000F0E01082E2E3F0E08FEF8083A5E5B0E05D
:10011000E5E5F0E080818A608C93ABE5B0E0EBE54B
:10012000F0E08081806C8C93A9E5B0E0E9E5F0E037
:10013000808184608C937894E8E3F0E085E58083A7
:1001400006D0E8E3F0E08AEA808301D0F5CFDF93C0
:10015000CF9300D0CDB7DEB71A82198220C081E0DC
:1001600090E09093630080936200EDE4F0E08FEF05
:100170008083ECE4F0E084E88083AEE4B0E0EEE479
:10018000F0E0808183608C938091620090916300A5
:100190000097D1F789819A8101969A83898320916A
:1001A00060003091610089819A8182179307BCF2C7
:0E01B0000F900F90CF91DF910895F894FFCF3C
:0201BE0001003E
:00000001FF
