:1000000012C02CC02BC02AC029C028C027C026C0BF
:1000100026C024C023C022C021C020C01FC01EC0D3
:100020001DC01CC01BC011241FBECFE5D4E0DEBF25
:10003000CDBF10E0A0E6B0E0E0EBF2E002C005903A
:100040000D92A636B107D9F710E0A6E6B0E001C0E0
:100050001D92A836B107E1F716D028C1D1CF1F9263
:100060000F920FB60F921124DF93CF93CDB7DEB767
:100070001092670010926600CF91DF910F900FBE33
:100080000F901F901895DF93CF93CDB7DEB7E1E3C4
:10009000F0E08FEF8083E7E3F0E08FEF8083A8E369
:1000A000B0E0E8E3F0E0808182608C93A9E5B0E005
:1000B000E9E5F0E0808184608C93789404D080E658
:1000C00090E018D0FFCFDF93CF93CDB7DEB780E1BC
:1000D00090E0B3D083E329D082E327D088E225D013
:1000E00081E023D08EE021D08AE090E0A6D0CF91AD
:1000F000DF910895DF93CF9300D0CDB7DEB79A8319
:10010000898309C0E981FA81808153D089819A81EC
:1001100001969A838983E981FA818081882391F706
:100120000F900F90CF91DF910895DF93CF930F92AF
:10013000CDB7DEB78983E2E3F0E08981807F8083F9
:10014000A8E3B0E0E8E3F0E08081877F8C93A8E348
:10015000B0E0E8E3F0E0808180618C9381E090E0A2
:100160006CD0A8E3B0E0E8E3F0E080818F7E8C9370
:1001700082E090E062D0E2E3F0E089818295807FC6
:100180008083A8E3B0E0E8E3F0E0808180618C93B5
:1001900081E090E052D0A8E3B0E0E8E3F0E08081B5
:1001A0008F7E8C9382E090E048D00F90CF91DF91CA
:1001B0000895DF93CF930F92CDB7DEB78983E2E343
:1001C000F0E08981807F8083A8E3B0E0E8E3F0E09D
:1001D000808180628C93A8E3B0E0E8E3F0E0808166
:1001E00080618C9381E090E028D0A8E3B0E0E8E360
:1001F000F0E080818F7E8C9382E090E01ED0E2E37D
:10020000F0E089818295807F8083A8E3B0E0E8E315
:10021000F0E0808180618C9381E090E00ED0A8E3D3
:10022000B0E0E8E3F0E080818F7E8C9382E090E0A4
:1002300004D00F90CF91DF910895DF93CF9300D03A
:1002400000D0CDB7DEB79C838B831A82198220C081
:1002500081E090E09093670080936600EDE4F0E029
:100260008FEF8083ECE4F0E084E88083AEE4B0E0DC
:10027000EEE4F0E0808183608C9380916600909141
:1002800067000097D1F789819A8101969A838983C3
:1002900029813A818B819C8128173907C8F20F90F8
:1002A0000F900F900F90CF91DF910895F894FFCFAA
:0602B00048454C4C4F00D4
:00000001FF
