:020000020000FC
:1000000012C0189518951895189518951895189563
:1000100059C018951895189518951895189518950C
:1000200018951895189501E00EBD002704E009BF4A
:1000300000E00DBD00E00CBDF4E0EDE503E0008361
:100040000EBF0BEF02930DBF02E002930CEA029386
:1000500001E0029300E80293002700935F0404E4A8
:100060000093CF0200E00093CE020BE50093A301C2
:1000700000E00093A201789400C00FEF07BB0AEAEA
:1000800008BB05E508BBFBCF03E309B908E00AB9E3
:1000900006E800BD19E70E94570015E60E945700C8
:1000A00013E70E94570010E20E945700F3CF5D9BB8
:1000B000FECF1CB908950FEF07BB0FEF08BB00E0A0
:1000C00008BBFBCFFF93EF93DF93CF93BF93AF9327
:1000D0009F938F937F936F935F934F933F932F9350
:1000E0001F930F93FF92EF92DF92CF92BF92AF9246
:1000F0009F928F927F926F925F924F923F922F9238
:100100001F920F921FB71F9300915F04EDE5F4E07B
:100110000024E01BF009E01BF0091EB710831DB797
:1001200012930395033039F4EDE5F4E000270093D2
:100130005F04108103C000935F0412911EBF1291EF
:100140001DBF1F911FBF0F901F902F903F904F908A
:100150005F906F907F908F909F90AF90BF90CF9067
:10016000DF90EF90FF900F911F912F913F914F9152
:100170005F916F917F918F919F91AF91BF91CF913F
:08018000DF91EF91FF9118954A
:00000001FF
