:1000000012C02CC02BC02AC029C028C028C037C0AD
:1000100025C024C023C022C021C020C01FC01EC0D4
:100020001DC01CC01BC011241FBECFE5D4E0DEBF25
:10003000CDBF10E0A0E6B0E0ECEFF0E002C005902C
:100040000D92A036B107D9F710E0A0E6B0E001C0EC
:100050001D92A036B107E1F722D04EC0D1CF1F923A
:100060000F920FB60F921124DF93CF93CDB7DEB767
:10007000CF91DF910F900FBE0F901F9018951F9298
:100080000F920FB60F921124DF93CF93CDB7DEB747
:10009000CF91DF910F900FBE0F901F901895DF93B7
:1000A000CF93CDB7DEB7E7E3F0E08FEF8083EDE4E9
:1000B000F0E01082ECE4F0E01082EBE4F0E010827B
:1000C000EAE4F0E080E88083E9E4F0E01082E8E42C
:1000D000F0E080E48083E9E5F0E088E18083E8E314
:1000E000F0E010827894EFE4F0E081EF8083EEE4BA
:0C00F000F0E083E08083FFCFF894FFCFA6
:00000001FF
