:1000000012C02CC02BC02AC029C028C027C026C0BF
:1000100025C024C024C022C021C020C01FC01EC0D3
:100020001DC01CC01BC011241FBECFE5D4E0DEBF25
:10003000CDBF10E0A0E6B0E0E0EEF0E002C0059039
:100040000D92A236B107D9F710E0A2E6B0E001C0E8
:100050001D92A436B107E1F716D040C0D1CF1F9250
:100060000F920FB60F921124DF93CF93CDB7DEB767
:100070001092630010926200CF91DF910F900FBE3B
:100080000F901F901895DF93CF93CDB7DEB7E7E3BE
:10009000F0E088E28083A8E3B0E0E8E3F0E080816C
:1000A00080618C93ADE2B0E0EDE2F0E08081806DA4
:1000B0008C93789481E090E0909363008093620049
:1000C000EFE2F0E080916000909161008083809188
:1000D0006200909163000097D1F7ECCFF894FFCFC6
:0200E000060018
:00000001FF
