:1000000019C033C032C031C030C02FC02EC02DC087
:100010002CC02BC02AC029C028C027C026C025C09C
:1000200024C024C022C021C020C01FC01EC01DC0CB
:100030001CC01BC011241FBECFEFD2E0DEBFCDBF5E
:1000400011E0A0E0B1E0E2EEF0E002C005900D9218
:10005000A030B107D9F711E0A0E0B1E001C01D92D6
:10006000A030B107E1F722D03AC0CACF1F920F9259
:100070000FB60F9211248F93AF93BF93EF93FF931B
:10008000DF93CF93CDB7DEB7EBE2F0E0AEE4B0E0C4
:100090008C918083CF91DF91FF91EF91BF91AF91D0
:1000A0008F910F900FBE0F901F901895DF93CF93F5
:1000B000CDB7DEB7EAE2F0E08FEF8083E4E2F0E074
:1000C00080E18083ACE4B0E0ECE4F0E08081806C1F
:1000D0008C93EEE4F0E087E080837894FFCFF8948F
:0200E000FFCF50
:00000001FF
