:1000000012C02DC02BC062C029C028C027C026C086
:1000100025C024C023C022C021C020C01FC01EC0D4
:100020001DC01CC01BC011241FBECFE5D4E0DEBF25
:10003000CDBF10E0A0E6B0E0E0EFF0E002C0059038
:100040000D92A036B107D9F710E0A0E6B0E001C0EC
:100050001D92A236B107E1F71AD048C0D1CF1F9246
:100060000F920FB60F921124DF93CF93CDB7DEB767
:10007000CF91DF910F900FBE0F901F901895DF93D7
:10008000CF93CDB7DEB70000CF91DF910895DF9316
:10009000CF93CDB7DEB7E7E3F0E08FEF8083E4E402
:1000A000F0E01082E3E4F0E08DE78083A9E5B0E0C2
:1000B000E9E5F0E0808180688C937894A5E4B0E075
:1000C000E5E4F0E0808189678C93FFCF1F920F9267
:1000D0000FB60F921124DF93CF93CDB7DEB7CF9138
:1000E000DF910F900FBE0F901F901895F894FFCFDF
:00000001FF
