:020000020000FC
:1000000010C0189518951895189518951895189565
:100010001895189518951895189518951895189578
:1000200018950AE0A0E6B0E0C0E7D0E0E0E8F0E034
:100030000D930FE00D9308E00D930CE00D9304E198
:100040000D9305E00D930EE10D9300E10D9304E097
:100050000D9308E10C930C911E9101171CF4199358
:100060000C942B001F17202F012F122F099311F032
:100070000C942B000A910A910A911A9101171CF411
:1000800010830C943A00202F012F122F01931F1779
:0800900011F30C943A00FFCFBC
:00000001FF
