:1000000012C02DC02BC02AC029C028C027C026C0BE
:1000100025C024C023C022C021C020C01FC01EC0D4
:100020001DC01CC01BC011241FBECFE5D4E0DEBF25
:10003000CDBF10E0A0E6B0E0E2EEF0E002C0059037
:100040000D92A236B107D9F710E0A2E6B0E001C0E8
:100050001D92A436B107E1F726D041C0D1CF1F923F
:100060000F920FB60F9211248F939F93AF93BF936C
:10007000EF93FF93DF93CF93CDB7DEB7A2E3B0E06A
:10008000E2E3F0E0908180E189278C93CF91DF91CA
:10009000FF91EF91BF91AF919F918F910F900FBE04
:1000A0000F901F901895DF93CF93CDB7DEB7E1E3A4
:1000B000F0E080E18083E2E3F0E084E08083A5E586
:1000C000B0E0E5E5F0E0808182608C93ABE5B0E0E4
:1000D000EBE5F0E0808180648C937894FFCFF89416
:0200E000FFCF50
:0200E20001001B
:00000001FF
